{"abi":[{"type":"function","name":"balances","inputs":[{"name":"","type":"address","internalType":"address"}],"outputs":[{"name":"","type":"uint256","internalType":"uint256"}],"stateMutability":"view"},{"type":"function","name":"deposit","inputs":[],"outputs":[],"stateMutability":"payable"},{"type":"function","name":"getBalance","inputs":[],"outputs":[{"name":"","type":"uint256","internalType":"uint256"}],"stateMutability":"view"},{"type":"function","name":"withdraw","inputs":[],"outputs":[],"stateMutability":"nonpayable"},{"type":"event","name":"Deposit","inputs":[{"name":"user","type":"address","indexed":true,"internalType":"address"},{"name":"amount","type":"uint256","indexed":false,"internalType":"uint256"}],"anonymous":false},{"type":"event","name":"Withdraw","inputs":[{"name":"user","type":"address","indexed":true,"internalType":"address"},{"name":"amount","type":"uint256","indexed":false,"internalType":"uint256"}],"anonymous":false}],"bytecode":{"object":"0x608080604052346100165761027b908161001b8239f35b5f80fdfe608060409080825260049081361015610016575f80fd5b5f3560e01c90816312065fe0146102235750806327e235e3146101ea5780633ccfd60b146100b35763d0e30db01461004c575f80fd5b5f3660031901126100af57335f525f602052815f2080549134830180931161009c575055513481527fe1fffcc4923d04b559f4d29a8bfc6cda04eb5b0d3c460751c2402c5c5cc9109c60203392a2005b601190634e487b7160e01b5f525260245ffd5b5f80fd5b50346100af575f3660031901126100af57335f5260205f8152825f20549182156101bc57335f525f82525f848120555f80808086335af13d156101b75767ffffffffffffffff3d8181116101a457865191601f8201601f19908116603f011683019081118382101761019157875281525f843d92013e5b1561015c57507f884edad9ce6fa2440d8a54cc123490eb96d2768479d49ff9c7366125a94243649192519283523392a2005b60649184519162461bcd60e51b8352820152601160248201527015da5d1a191c985dd85b0819985a5b1959607a1b6044820152fd5b604185634e487b7160e01b5f525260245ffd5b604184634e487b7160e01b5f525260245ffd5b61012a565b60649184519162461bcd60e51b8352820152600a6024820152694e6f2062616c616e636560b01b6044820152fd5b50346100af5760203660031901126100af57356001600160a01b03811691908290036100af576020915f525f8252805f20549051908152f35b8390346100af575f3660031901126100af57602091335f525f83525f20548152f3fea2646970667358221220717464fe10f207c8cb491f20ec46eb5b0991723c55938b71c5efa95d8945c9be64736f6c63430008180033","linkReferences":{}},"methodIdentifiers":{"balances(address)":"27e235e3","deposit()":"d0e30db0","getBalance()":"12065fe0","withdraw()":"3ccfd60b"},"id":24}